:1000000045C000004BC0000049C0000047C00000D0
:1000100045C0000043C0000041C000003FC00000D8
:100020003DC000003BC0000039C0000037C00000E8
:1000300035C0000033C0000031C000002FC00000F8
:100040002DC000002BC0000029C0000027C0000008
:1000500025C0000023C0000021C000001FC0000018
:100060001DC000001BC0000019C0000017C0000028
:1000700015C0000013C0000011C000000FC0000038
:100080000DC000000BC0000009C0000011241FBEFD
:10009000CFEFD0E1DEBFCDBF43D090C0B1CF85B3AD
:1000A0008C6085BB8FEC97E00197F1F700C00000F2
:1000B00015BA0895AB9A8FEC97E00197F1F700C05D
:1000C000000015BA0895CF93C82F807F85BBE7DF66
:1000D00020E1C29FC001112485BBE1DFCF910895CB
:1000E000CF93C82F807F85BBE5DF20E1C29FC00191
:1000F000112485BBDFDFCF91089580E2F1DF88E234
:10010000EFDF82E0EDDF8CE0EBDF86E0E9DF80E827
:10011000E7CF089581E0E4CF089582E0E1CF08952C
:10012000109261008FEF8ABB84BB86EE86B983EEA6
:1001300087B92FEF89E698E1215080409040E1F7A0
:1001400000C00000DADF2FEF89E698E121508040FF
:100150009040E1F700C00000DDDF2FEF89E698E175
:10016000215080409040E1F700C00000D6DF2FEF23
:1001700089E698E1215080409040E1F700C00000FE
:100180001DEC85B18BBBC5B1D5B1C7DFC19F812D3A
:100190001124869586958695805D95DFD19F912D5A
:1001A0001124969596959695990F892F880F880F0B
:1001B000980F8D2F891B805D86DFE3CFF894FFCFEA
:00000001FF
