S00F00005765656B352E342E73726563F2
S113000045C000004BC0000049C0000047C00000CC
S113001045C0000043C0000041C000003FC00000D4
S11300203DC000003BC0000039C0000037C00000E4
S113003035C0000033C0000031C000002FC00000F4
S11300402DC000002BC0000029C0000027C0000004
S113005025C0000023C0000021C000001FC0000014
S11300601DC000001BC0000019C0000017C0000024
S113007015C0000013C0000011C000000FC0000034
S11300800DC000000BC0000009C0000011241FBEF9
S1130090CFEFD0E1DEBFCDBFE7D03AC1B1CF181664
S11300A019066CF420E030E0E9EFF0E03197F1F765
S11300B000C000002F5F3F4F28173907A9F70895A4
S11300C08FEF87BBBB98C09A82E58DB908958FB92D
S11300D0779BFECF089598B321E030E002C0220F51
S11300E0331F8A95E2F72095292328BB089598B3F6
S11300F021E030E002C0220F331F8A95E2F7292B5A
S113010028BB089580E0E7DF89E0E1DF8FEFDFDFE0
S113011080E0EDDF80E0DFDF8AE0D9DF8FE0D7DF4A
S113012080E0E5DF80E0D7DF8BE0D1DF83E0CFDF65
S113013080E0DDDF80E0CFDF8CE0C9DF81E0C7DF76
S113014080E0D5CF0895CF93DF93D82FC62F80E0DA
S1130150C2DF8D2FBCDF8C2FBADF80E0C8DFDF91D8
S1130160CF9108950F931F93CF93DF938C01C1E038
S11301706FE08C2FE8DFCF5FC530D1F7C80101975E
S11301808F30974280F5083E83E0180754F0C80189
S113019068EE73E096D0D82FC92F84E0D4DF0D2FFA
S11301A01C2F0436110554F0C80164E670E089D0B0
S11301B0D82FC92F83E0C7DF0D2F1C2F0A3011055C
S11301C054F0C8016AE070E07CD0D82FC92F82E0D7
S11301D0BADF0D2F1C2F101611060CF040C0602F33
S11301E081E0B1DF3CC009312CEF12070CF437C0B9
S11301F01195019511090436110534F16AE084E082
S1130200A2DFC80164E670E05CD0D82FC92F83E078
S11302109ADF0D2F1C2F0A30110524F419C06AE04F
S113022083E091DFC8016AE070E04BD0D82FC92F7A
S113023082E089DF0D2F1C2F0BC06AE082E083DF90
S1130240602F81E080DF0BC00A30110544F704C041
S113025010161106ACF303C01016110674F3DF91E7
S1130260CF911F910F910895CF93DF9381E087BBC6
S113027027DF48DFC1E060E08C2F65DFCF5FC5304A
S1130280D1F788EE93E00BDFC1E0D5E06D2F6C1B56
S11302908C2F59DF88EE93E002DFCF5FC530B1F7D2
S11302A080E090E05FDF8FEE95E25CDF89EB9FEF0B
S11302B059DF88EE93E0F3DE81E090E0DF91CF91A7
S11302C0089597FB072E16F4009406D077FD08D006
S11302D00BD007FC05D03EF4909581959F4F08956F
S11302E0709561957F4F0895AA1BBB1B51E107C010
S11302F0AA1FBB1FA617B70710F0A61BB70B881FB2
S1130300991F5A95A9F780959095BC01CD01089540
S1070310F894FFCF8B
S9030000FC
