S00D00005765656B322E7372656359
S113000045C0000059C0000086C0000054C0000074
S113001052C0000050C000004EC000004CC00000A0
S11300204AC0000048C0000046C0000044C00000B0
S113003042C0000040C000003EC000003CC00000C0
S11300403AC0000038C0000036C0000034C00000D0
S113005032C0000030C000002EC000002CC00000E0
S11300602AC0000028C0000026C0000024C00000F0
S113007022C0000020C000001EC000001CC0000000
S11300801AC0000018C0000016C0000011241FBED2
S1130090CFEFD0E1DEBFCDBF11E0A0E0B1E0E2E9F7
S11300A0F1E000E00BBF02C007900D92A230B1074F
S11300B0D9F760D06CC0A4CF1F920F920FB60F92E5
S11300C011248F939F938091000190910101880FD7
S11300D0991F813891053CF081E090E090930101F3
S11300E0809300010EC0181619062CF49093010198
S11300F08093000106C080E890E090930101809312
S11301000001809100018BBB9F918F910F900FBED6
S11301100F901F9018951F920F920FB60F921124F3
S11301208F939F93809100019091010195958795FC
S1130130813891053CF081E090E090930101809337
S113014000010EC0181619062CF490930101809337
S1130150000106C080E890E09093010180930001C3
S1130160809100018BBB9F918F910F900FBE0F90D8
S11301701F90189511BA8FEF8ABBEAE6F0E08081F0
S11301808F60808389B7836089BF7894FFCFF894A8
S1050190FFCF9B
S1050192010066
S9030000FC
