S01300004D696E6970726F6A6563742E737265638D
S113000045C000004BC0000049C0000047C00000CC
S113001045C0000043C0000041C000003FC00000D4
S11300203DC000003BC0000039C0000037C00000E4
S113003035C0000033C0000031C000002FC00000F4
S11300402DC000002BC0000029C0000027C0000004
S113005025C0000023C0000021C000001FC0000014
S11300601DC000001BC0000019C0000017C0000024
S113007015C0000013C0000011C000000FC0000034
S11300800DC000000BC0000009C0000011241FBEF9
S1130090CFEFD0E1DEBFCDBF2ED05BC0B1CF83E0C8
S11300A084BB15BA089581E085BB8FEA94E001977B
S11300B0F1F700C0000015BA089581E085BB83E91B
S11300C091E10197F1F700C0000015BA089582E0AC
S11300D085BB83E991E10197F1F700C0000015BAEF
S11300E0089582E085BB8FEA94E00197F1F700C0A0
S11300F0000015BA0895D3DF0AE010E0C02FD12F15
S1130100F0DFD1DF8FE19EE40197F1F700C000003A
S11301102197B1F79FEF23ED80E391502040804079
S1130120E1F700C00000C02FD12FD1DFC6DF8FE17F
S11301309EE40197F1F700C000002197B1F79FEF0B
S113014023ED80E3915020408040E1F700C000009F
S1090150D5CFF894FFCFA7
S9030000FC
