:1000000045C0000058C0000056C0000054C00000A9
:1000100052C0000050C000004EC000004CC00000A4
:100020004AC0000048C0000046C0000044C00000B4
:1000300042C0000040C000003EC000003CC00000C4
:100040003AC0000038C0000036C0000034C00000D4
:1000500032C0000030C000002EC000002CC00000E4
:100060002AC0000028C0000026C0000024C00000F4
:1000700022C0000020C000001EC000001CC0000004
:100080001AC0000018C0000016C0000011241FBED6
:10009000CFEFD0E1DEBFCDBF11E0A0E0B1E0E4EBF7
:1000A000F2E000E00BBF02C007900D92A430B10750
:1000B000D9F711D0FDC0A4CF8EE290E09BBD8ABDE0
:1000C00099BD88BD909379008093780089EA8FBDAF
:1000D0008CE08EBD08958FEF87BB8ABB84BB81BB4C
:1000E00082B91092610086EE86B9E6DF2FE73AE129
:1000F00046E0215030404040E1F700C000000F2EA4
:10010000F0E6AF2EF02D0F2EF1E6BF2EF02D0F2EC4
:10011000F2E6CF2EF02D0F2EF3E6DF2EF02D0EE1BE
:1001200010E0CDE3D0E0AEE3B0E0A7B88FE798E30E
:10013000E1E081509040E040E1F700C0000024B1D0
:1001400085B190E0BC01620F711DB7B82FE738E3AD
:1001500041E0215030404040E1F700C0000024B1B0
:1001600085B190E0820F911DC7B8EFE728E331E039
:10017000E15020403040E1F700C0000024B145B11B
:1001800050E0420F511DD7B8EFE728E331E0E150CE
:1001900020403040E1F700C00000E4B125B130E07C
:1001A0002E0F311D6BBB85BB42BB23B9FB01E20F98
:1001B000F31F7C01E40EF51E860F971F240F351FD9
:1001C000EE16FF06C4F4EE19FF09E93CF10574F1DF
:1001D00040910001509101014F5F5F4F4E33510537
:1001E0002CF4509301014093000120C0D0930101F1
:1001F000C09300011BC0EE15FF05C4F4EE1AFF0A00
:1002000049ECE416F10494F0409100015091010191
:10021000415051094E3151052CF05093010140934A
:10022000000104C010930101009300012817390751
:10023000BCF4821B930B893C91055CF18091020117
:100240009091030101968F3391052CF49093030153
:10025000809302011EC0B0930301A093020119C054
:1002600082179307B4F4281B390B293C31058CF015
:10027000809102019091030101978E3191052CF03C
:10028000909303018093020104C010930301009333
:1002900002018091020190910301209100013091AF
:1002A000010133273BBD2ABD992799BD88BD3DCFAC
:0402B000F894FFCFF0
:0402B4002E002E00EA
:00000001FF
