S00F00005765656B332E322E73726563F6
S113000045C0000053C0000051C000004FC00000B4
S11300104DC000004BC0000049C0000047C00000B4
S113002045C0000043C0000083C000003FC0000082
S11300303DC000003BC0000039C0000037C00000D4
S113004035C0000033C0000031C000002FC00000E4
S11300502DC000002BC0000029C0000027C00000F4
S113006025C0000023C0000021C000001FC0000004
S11300701DC000001BC0000019C0000017C0000014
S113008015C0000013C0000011C0000011241FBEE1
S1130090CFEFD0E1DEBFCDBF21E0A0E0B1E001C0F1
S11300A01D92A230B207E1F75AD0AFC0A9CF85B3F1
S11300B08C6085BB8FEC97E00197F1F700C00000DE
S11300C015BA0895AB9A8FEC97E00197F1F700C049
S11300D0000015BA0895CF93C82F807F85BBE7DF52
S11300E020E1C29FC001112485BBE1DFCF910895B7
S11300F0CF93C82F807F85BBE5DF20E1C29FC0017D
S1130100112485BBDFDFCF91089580E2F1DF88E21F
S1130110EFDF82E0EDDF8CE0EBDF86E0E9DF80E813
S1130120E7CF089581E0E4CF089582E0E1CF089518
S11301301F920F920FB60F9211248F939F93809169
S113014000019091010101969093010180930001B7
S11301509F918F910F900FBE0F901F9018958FEF66
S113016084BB11BA87BB81E083BD87B7806887BF32
S1130170789487E085BD2FEF89E698E1215080408F
S11301809040E1F700C00000C0DF2FEF89E698E15E
S1130190215080409040E1F700C00000C3DF2FEF02
S11301A089E698E1215080409040E1F700C00000CA
S11301B0BCDF2FEF89E698E1215080409040E1F7C1
S11301C000C00000C0E0D1E02FEF89E698E12150A3
S11301D080409040E1F700C00000A4DF2FE788E3EF
S11301E091E0215080409040E1F700C000009DDF85
S11301F02FE788E391E0215080409040E1F700C070
S111020000008881805D67DFDFCFF894FFCFB8
S9030000FC
