:1000000045C0000058C0000056C0000054C00000A9
:1000100052C0000050C000004EC000004CC00000A4
:100020004AC0000048C0000046C0000044C00000B4
:1000300042C0000040C000003EC000003CC00000C4
:100040003AC0000038C0000036C0000034C00000D4
:1000500032C0000030C000002EC000002CC00000E4
:100060002AC0000028C0000026C0000024C00000F4
:1000700022C0000020C000001EC000001CC0000004
:100080001AC0000018C0000016C0000011241FBED6
:10009000CFEFD0E1DEBFCDBF11E0A0E0B1E0EEEFE9
:1000A000F1E000E00BBF02C007900D92AE31B10746
:1000B000D9F757D0A2C0A4CF85B38C6085BB8FEC95
:1000C00097E00197F1F700C0000015BA0895AB9AC8
:1000D0008FEC97E00197F1F700C0000015BA089582
:1000E000CF93C82F807F85BBE7DF20E1C29FC0018F
:1000F000112485BBE1DFCF910895CF93C82F807F76
:1001000085BBE5DF20E1C29FC001112485BBDFDF95
:10011000CF91089580E2F1DF88E2EFDF82E0EDDF4A
:100120008CE0EBDF86E0E9DF80E8E7CF0895CF934E
:10013000DF93EC018881882329F02196D1DF899112
:100140008111FCCFDF91CF9108958068D6CF0895BB
:1001500081E0D3CF089582E0D0CF089588E1CDCF5C
:100160000895CF93DF93CDB7DEB76E970FB6F894AF
:10017000DEBF0FBECDBF8FEF84BB2FEF89E698E1C6
:10018000215080409040E1F700C00000C3DF2FEF16
:1001900089E698E1215080409040E1F700C00000DE
:1001A000D7DF2FEF89E698E1215080409040E1F7BA
:1001B00000C00000D0DF2FEF89E698E12150804099
:1001C0009040E1F700C000008EE1E0E0F1E0DE01E8
:1001D000119601900D928A95E1F788E2B6DFCE0183
:1001E0000196A5DFBBDF2FE78AE196E02150804032
:0E01F0009040E1F700C00000F5CFF894FFCF7B
:1001FE0068616C6C6F2031323334353637383930B4
:0E020E0020636F6F6C20646973706C617900FF
:00000001FF
