:1000000045C0000053C0000051C000004FC00000B8
:100010004DC000004BC0000049C0000047C00000B8
:1000200045C00000B2C0000041C000003FC0000059
:100030003DC000003BC0000039C0000037C00000D8
:1000400035C0000033C0000031C000002FC00000E8
:100050002DC000002BC0000029C0000027C00000F8
:1000600025C0000023C0000021C000001FC0000008
:100070001DC000001BC0000019C0000017C0000018
:1000800015C0000013C0000011C0000011241FBEE5
:10009000CFEFD0E1DEBFCDBF21E0A0E0B1E001C0F5
:1000A0001D92A230B207E1F743D0A0C0A9CF85B31B
:1000B0008C6085BB8FEC97E00197F1F700C00000E2
:1000C00015BA0895AB9A8FEC97E00197F1F700C04D
:1000D000000015BA0895CF93C82F807F85BBE7DF56
:1000E00020E1C29FC001112485BBE1DFCF910895BB
:1000F000CF93C82F807F85BBE5DF20E1C29FC00181
:10010000112485BBDFDFCF91089580E2F1DF88E223
:10011000EFDF82E0EDDF8CE0EBDF86E0E9DF80E817
:10012000E7CF089581E0E4CF089582E0E1CF08951C
:100130008FEF84BBEADF2FEF89E698E12150804002
:100140009040E1F700C00000EDDF2FEF89E698E175
:10015000215080409040E1F700C00000E6DF2FEF23
:1001600089E698E1215080409040E1F700C000000E
:100170008EE383BD85B5886085BD87B7806887BFFE
:1001800085B5826085BD7894FFCF1F920F920FB620
:100190000F9211240BB60F922F933F934F935F93BF
:1001A0006F937F938F939F93AF93BF93EF93FF933F
:1001B000809100019091010101969093010180933B
:1001C0000001805D88DFFF91EF91BF91AF919F911A
:1001D0008F917F916F915F914F913F912F910F90F0
:1001E0000BBE0F900FBE0F901F901895F894FFCF85
:00000001FF
