:1000000045C0000053C0000051C000004FC00000B8
:100010004DC000004BC0000049C0000047C00000B8
:1000200045C00000B3C0000041C000003FC0000058
:100030003DC000003BC0000039C0000037C00000D8
:1000400035C0000033C0000031C000002FC00000E8
:100050002DC000002BC0000029C0000027C00000F8
:1000600025C0000023C0000021C000001FC0000008
:100070001DC000001BC0000019C0000017C0000018
:1000800015C0000013C0000011C0000011241FBEE5
:10009000CFEFD0E1DEBFCDBF21E0A0E0B1E001C0F5
:1000A0001D92A430B207E1F743D0B2C0A9CF85B307
:1000B0008C6085BB8FEC97E00197F1F700C00000E2
:1000C00015BA0895AB9A8FEC97E00197F1F700C04D
:1000D000000015BA0895CF93C82F807F85BBE7DF56
:1000E00020E1C29FC001112485BBE1DFCF910895BB
:1000F000CF93C82F807F85BBE5DF20E1C29FC00181
:10010000112485BBDFDFCF91089580E2F1DF88E223
:10011000EFDF82E0EDDF8CE0EBDF86E0E9DF80E817
:10012000E7CF089581E0E4CF089582E0E1CF08951C
:100130008FEF84BB81BBE9DF2FEF89E698E1215087
:1001400080409040E1F700C00000ECDF2FEF89E62F
:1001500098E1215080409040E1F700C00000E5DFC9
:100160002FEF89E698E1215080409040E1F700C0F0
:10017000000088E083BD85B5886085BD87B780684D
:1001800087BF85B5856085BD7894FFCF1F920F929C
:100190000FB60F9211240BB60F922F933F934F93EC
:1001A0005F936F937F938F939F93AF93BF93EF93DF
:1001B000FF938FEF82BB1092010110920001B2DF1A
:1001C000809102019091030101968A3091052CF4EF
:1001D000909303018093020104C0109203011092D6
:1001E000020180910201805D76DFFF91EF91BF9166
:1001F000AF919F918F917F916F915F914F913F91BF
:100200002F910F900BBE0F900FBE0F901F9018955F
:04021000F894FFCF90
:00000001FF
