:1000000045C0000053C0000051C000004FC00000B8
:100010004DC000004BC0000049C0000047C00000B8
:1000200045C0000044C0000041C000003FC00000C7
:100030003DC000003BC0000039C0000037C00000D8
:1000400035C0000033C0000031C000002FC00000E8
:100050002DC000002BC0000029C0000027C00000F8
:1000600025C0000023C0000021C000001FC0000008
:100070001DC000001BC0000019C0000017C0000018
:1000800015C0000013C0000011C0000011241FBEE5
:10009000CFEFD0E1DEBFCDBF21E0A0E0B1E001C0F5
:1000A0001D92A230B207E1F72FD033C0A9CF1F9223
:1000B0000F920FB60F9211248F939F93809100019E
:1000C00090910101892B51F418BA81E090E090934E
:1000D00001018093000181EC83BD08C08FEF88BBD4
:1000E000109201011092000185E783BD9F918F91CD
:1000F0000F900FBE0F901F90189585E783BD80E885
:1001000087BF8DE185BD08958FEF87BBF6DF7894BB
:06011000FFCFF894FFCFC1
:00000001FF
